:020000040800F2
:10000000400C0020290200089F25000859250008FF
:100010009B25000877030008D13800080000000085
:10002000000000000000000000000000792A000825
:100030007B03000800000000772A00087B2A0008E4
:10004000430200084302000843020008430200087C
:10005000430200084302000843020008430200086C
:10006000430200084302000843020008430200085C
:10007000430200084302000843020008430200084C
:10008000430200084302000843020008430200083C
:10009000430200084302000843020008430200082C
:1000A000430200084302000843020008430200081C
:1000B000430200084302000843020008430200080C
:1000C00043020008430200084302000843020008FC
:1000D00043020008430200084302000843020008EC
:1000E00043020008430200084302000843020008DC
:1000F0004302000843020008000000000000000066
:100100000000000000000000430200084302000855
:100110000000000000000000430200084302000845
:10012000430200084302000843020008430200089B
:10013000430200084302000843020008430200088B
:100140004302000800000000000000000000000062
:10015000000000000000000000000000000000009F
:10016000000000000000000043020008C138000841
:10017000B138000800000000430200080000000041
:10018000000000004302000800F002F800F03CF814
:100190000AA090E8000C82448344AAF10107DA45E2
:1001A00001D100F031F8AFF2090EBAE80F0013F0F8
:1001B000010F18BFFB1A43F0010318475C38000019
:1001C0007C380000103A24BF78C878C1FAD85207AA
:1001D00024BF30C830C144BF04680C6070470000C1
:1001E0000023002400250026103A28BF78C1FBD840
:1001F000520728BF30C148BF0B6070471FB503F0DE
:10020000E3FB1FBD10B510BD00F06CF81146FFF701
:10021000F5FF03F071FB00F09DF803B4FFF7F2FF68
:1002200003BC00F0A1F800000948804709480047D6
:10023000FEE7FEE7FEE7FEE7FEE7FEE7FEE7FEE796
:10024000FEE7FEE704480549054A064B70470000F3
:10025000092B00088901000840060020400C0020FE
:1002600040080020400800200FB4044910B503AA3C
:10027000029800F009F810BC5DF814FB00000020A3
:100280007047704770470000074B70B50D467B44C0
:1002900000F011F80446284600F020F810B14FF0A5
:1002A000FF3070BD204670BD4336000001694A1C16
:1002B00002610878704700B58FB0CDE901310021A7
:1002C000059105497944CDE903101146684600F0CF
:1002D0002EF80FB000BD0000E5FFFFFF007B00F02F
:1002E00080007047754600F03BF8AE460500694651
:1002F000534620F00700854618B020B5FFF7A2FF4F
:10030000BDE820404FF000064FF000074FF0000816
:100310004FF0000B21F00701AC46ACE8C009ACE897
:10032000C009ACE8C009ACE8C0098D4670472DE9AA
:10033000F04106460024D6E90170F568804602E0E7
:100340004146B847641C3046A8470028F8D12046EB
:10035000BDE8F0810446AFF300802046FFF75DFF63
:1003600000487047E005002001491820ABBEFEE7B9
:1003700026000200704700BFFEE7704700BFFEE79F
:1003800070B50A480468001D0568001D06683444FD
:1003900054B108220649204602F0E0F8042204493C
:1003A0001031284602F0DAF870BD0000ACF7FF1FEC
:1003B0002A00002031B500F0F3F8044600BF00F039
:1003C000EFF8001B00998842F9D338BDF0B5034619
:1003D0000A460025002400200021C9E0012606FA73
:1003E00001F5166806EA0504AC426FD15668022E84
:1003F00002D05668122E13D1CF0803F1200656F80A
:1004000027004E07F70E0F26BE40B0434F07FF0EE2
:100410001669BE403043CF0803F1200646F8270096
:1004200018684F000326BE40B043167906F0030655
:100430004F00BE40304318605668012E08D0566801
:10044000022E05D05668112E02D05668122E13D1F6
:1004500098684F000326BE40B0434F00D668BE40A8
:1004600030439860586801268E40B0431679C6F331
:1004700000168E4030435860D8684F000326BE40B7
:10048000B0434F009668BE403043D860566806F0CF
:100490008056B6F1805F6AD1374EB66946F00106E4
:1004A000354FBE614FEAB7368F0856F827008E07E2
:1004B000370F0F26BE40B043B3F1904F01D1002655
:1004C0001AE02E4EB34202D1012615E04FE02C4E29
:1004D000B34201D102260FE02A4EB34201D10326D6
:1004E0000AE0294EB34201D1042605E0274EB3426B
:1004F00001D1052600E006268F073F0FBE4030439E
:10050000234E8F0846F82700224E3068A0435668D5
:1005100006F48036B6F5803F00D120431D4E306092
:10052000361D3068A043566806F40036B6F5003F25
:1005300000D12043174E361D3060361D3068A04371
:10054000566806F48016B6F5801F00D12043114E80
:1005500008363060361D3068A043566806F4001631
:10056000B6F5001F00D120430A4E0C363060491CFE
:100570001029FFF433AFF0BD001002400004004822
:1005800000080048000C0048001000480014004813
:10059000080001400004014042694A40426170473E
:1005A00001480068704700004400002002480068CD
:1005B000401C0149086070474400002010B50848FD
:1005C000006840F0100006490860032000F06AF857
:1005D0000F2000F007F800F017F8002010BD000011
:1005E0000020024070B5044601F02CFB4FF47A71F4
:1005F000B0FBF1F5284601F095FF00222146501E80
:1006000000F011F8002070BD704700BF00F01F021D
:100610000121914042094FF0E02303EB8202C2F82E
:10062000001100BF70472DE9F05F80460D46164669
:10063000002701F0B5FF074639462A46334601F048
:100640000700C0F1070ABAF1040F02D94FF0040AFB
:1006500001E0C0F1070AD14600F1040ABAF1070F20
:1006600002D24FF0000A01E0A0F1030AD4464FF095
:10067000010A0AFA09FAAAF1010A0AEA020A0AFABE
:100680000CFA4FF0010B0BFA0CFBABF1010B0BEA70
:10069000030B4AEA0B042146404601F089FFBDE8FE
:1006A000F09F000000BF00F00702064B19684FF6EC
:1006B000FF031940044B0B4343EA0221014B19602D
:1006C00000BF70470CED00E00000FA0570B505466C
:1006D0000C4604F08000802808D104F07F00C0EBB5
:1006E000C00605F1280000EB860105E0C4EBC40656
:1006F00005F1B40000EB86011AB9002088728B80E6
:1007000004E001208872CB80180C0881002070BDA5
:1007100070B504460D46C5EBC50304F1280101EB95
:1007200083010A692946D4F8740102F01CFD70BDEA
:1007300070B504460D46C5EBC50304F1B40101EBE9
:1007400083010A692946D4F8740102F06DFD70BD79
:1007500070B502460B4603F08000802808D103F0F4
:100760007F00C0EBC00402F1280000EB840107E029
:1007700003F07F00C0EBC00402F1B40000EB840181
:1007800003F07F00087003F08000C009487000BFCC
:1007900092F84001012801D1022070BD012082F8A9
:1007A000400100BF887A002857D1487850B30C78B0
:1007B0006400106830F8140010F0400F0FD00C786F
:1007C0006400106830F8140048F68F74204048F236
:1007D000C00420430D786D00146824F815000D78CE
:1007E0006D00146834F8154048F6BF7504EA05003A
:1007F00040F4004444F080040E787600156825F833
:100800001640F7E00C786400106830F8140010F41B
:10081000804F0FD00C786400106830F8140048F650
:100820008F7420404CF2800420430D786D001468D2
:1008300024F815000D786D00146834F815404BF657
:100840008F7504EA050040F4004444F080040E78FB
:100850007600156825F81640CCE04878002864D169
:100860000C786400106830F8140010F4804F0FD03A
:100870000C786400106830F8140048F68F7420403B
:100880004CF2800420430D786D00146824F81500A4
:100890000C786400106830F8140010F0400F0FD08E
:1008A0000C786400106830F8140048F68F7420400B
:1008B00048F2C00420430D786D00146824F8150038
:1008C0000C786400106830F8140048F68F742040EB
:1008D00048F2C00420430D786D00146824F8150018
:1008E0000D786D00146834F815404BF68F7504EAE6
:1008F000050040F4004444F080040E78760015684A
:1009000025F816400D786D00146834F8154048F647
:10091000BF7504EA050040F4004444F080040E78FA
:100920007600156825F8164064E00C7864001068BD
:1009300030F8140010F4804F0FD00C786400106869
:1009400030F8140048F68F7420404CF280042043A5
:100950000D786D00146824F815000C786400106898
:1009600030F8140010F0400F0FD00C7864001068BD
:1009700030F8140048F68F74204048F2C004204339
:100980000D786D00146824F815000C786400106868
:1009900030F8140048F68F7420404CF28004204355
:1009A0000D786D00146824F815000D786D0014683A
:1009B00034F8154048F6BF7504EA050040F40044D9
:1009C00044F080040E787600156825F816400D78FE
:1009D0006D00146834F815404BF68F7504EA050075
:1009E00040F4004444F080040E787600156825F841
:1009F000164000BF00BF002082F8400100BF00BFCA
:100A0000CBE670B502460B4603F08000802808D183
:100A100003F07F00C0EBC00402F1280000EB84016A
:100A200005E0C3EBC30402F1B40000EB8401002035
:100A3000887003F07F000870C3F3C010487000BFD7
:100A400092F84001012801D1022070BD012082F8F6
:100A5000400100BF487870B30C786400106830F82B
:100A6000140010F0400F0FD00C786400106830F8BC
:100A7000140048F68F74204048F2C00420430D78DB
:100A80006D00146824F815000D786D00146834F8B2
:100A9000154048F6BF7504EA050080F0100080F0AC
:100AA000200040F4004444F080040E78760015687D
:100AB00025F816402EE00C786400106830F8140019
:100AC00010F4804F0FD00C786400106830F81400D8
:100AD00048F68F7420404CF2800420430D786D005E
:100AE000146824F815000D786D00146834F815406A
:100AF0004BF68F7504EA050080F4805080F40050B6
:100B000040F4004444F080040E787600156825F81F
:100B1000164000BF00BF002082F8400100BF00BFA8
:100B200093E72DE9F04104460D46002705F08000CB
:100B3000802808D105F07F00C0EBC00604F1280032
:100B400000EB860107E005F07F00C0EBC00604F172
:100B5000B40000EB860105F07F00087005F080000E
:100B6000C0094870CA60CB7000BF94F840010128EA
:100B700002D10220BDE8F081012084F8400100BFCD
:100B8000C87830B1012838D0022814D0032846D1C3
:100B900021E00E787600206830F8160048F68F16AF
:100BA000304040F4007691F800C04FEA4C0C2068C9
:100BB00020F81C6033E00E787600206830F81600CC
:100BC00048F68F16304091F800C04FEA4C0C26686A
:100BD00026F81C0023E00E787600206830F8160016
:100BE00048F68F16304040F4C06091F800C04FEADC
:100BF0004C0C266826F81C0011E00E787600206860
:100C000030F8160048F68F16304040F4806691F8B0
:100C100000C04FEA4C0C206820F81C6000BF00BFE9
:100C20000E787600206830F8160048F68F7630404F
:100C300048F2800630430E78304391F800C04FEA06
:100C40004C0C266826F81C00887A00287CD148784D
:100C5000E0B3888840104FEA400C2068B0F850603C
:100C6000087806EBC000266806F5806646F810C0D6
:100C70000E787600206830F8160010F0400F11D082
:100C80000E787600206830F8160048F68F763040EF
:100C900048F2C006304391F800C04FEA4C0C266879
:100CA00026F81C0091F800C04FEA4C0C266836F874
:100CB0001C6048F6BF7C06EA0C0080F0200040F47F
:100CC000004646F0800691F8008000E006E04FEA1A
:100CD0004808D4F800C02CF81860A7E188884010B4
:100CE0004FEA400C2068B0F85060087806EBC0006E
:100CF000001D266806F5806646F810C02068B0F82A
:100D000050C008780CEBC000801DD4F800C00CF572
:100D1000806C0CEB4006D1F80CC0BCF13E0F17D92B
:100D2000D1F80CC0CCF34F1091F80CC01CF01F0F81
:100D300003D1A0F1010C1FFA8CF04FF4004C4CEAE7
:100D4000802C1FFA8CFC00E04BE0C6F800C012E0DB
:100D5000D1F80CC0CCF34F0091F80CC01CF0010F7F
:100D600003D000F1010C1FFA8CF04FF6FF7C0CEA67
:100D7000802CC6F800C00E787600206830F8160087
:100D800010F4804F11D00E787600206830F81600ED
:100D900048F68F7630404CF28006304391F800C020
:100DA0004FEA4C0C266826F81C0091F800C04FEA68
:100DB0004C0C266836F81C604BF68F7C06EA0C005B
:100DC00080F4805080F4005040F4004646F08006E5
:100DD00091F800804FEA4808D4F800C02CF8186059
:100DE00024E10E787600206830F8160040F4807018
:100DF00048F68F76304048F28006304391F800C0C4
:100E00004FEA4C0C266826F81C00C88840104FEAB0
:100E1000400C2068B0F85060087806EBC0002668E7
:100E200006F5806646F810C0088940104FEA400C6D
:100E30002068B0F85060087806EBC000001D2668F6
:100E400006F5806646F810C04878002879D10E78FB
:100E50007600206830F8160010F4804F11D00E781C
:100E60007600206830F8160048F68F7630404CF255
:100E70008006304391F800C04FEA4C0C266826F8F3
:100E80001C000E787600206830F8160010F0400F35
:100E900011D00E787600206830F8160048F68F766C
:100EA000304048F2C006304391F800C04FEA4C0C85
:100EB000266826F81C000E787600206830F81600A8
:100EC00048F68F76304048F2C006304391F800C0B3
:100ED0004FEA4C0C266826F81C0091F800C04FEA37
:100EE0004C0C266836F81C604BF68F7C06EA0C002A
:100EF00080F4805080F4005040F4004646F08006B4
:100F000091F800804FEA4808D4F800C02CF8186027
:100F100091F800C04FEA4C0C266836F81C6048F681
:100F2000BF7C06EA0C0040F4004646F0800691F8CB
:100F300000804FEA4808D4F800C02CF8186075E02B
:100F4000FFE70E787600206830F8160010F4804F26
:100F500011D00E787600206830F8160048F68F76AB
:100F600030404CF28006304391F800C04FEA4C0C00
:100F7000266826F81C000E787600206830F81600E7
:100F800010F0400F11D00E787600206830F816006F
:100F900048F68F76304048F2C006304391F800C0E2
:100FA0004FEA4C0C266826F81C000E787600206864
:100FB00030F8160048F68F7630404CF28006304309
:100FC00091F800C04FEA4C0C266826F81C0091F8F6
:100FD00000C04FEA4C0C266836F81C6048F6BF7C0F
:100FE00006EA0C0040F4004646F0800691F80080C6
:100FF0004FEA4808D4F800C02CF8186091F800C0F7
:101000004FEA4C0C266836F81C604BF68F7C06EADB
:101010000C0040F4004646F0800691F800804FEA4C
:101020004808D4F800C02CF8186000BF00BF0020AA
:1010300084F8400100BF38469CE5F0B504460D46F3
:1010400005F07F00C0EBC00604F1B40000EB8601A0
:101050000A614B6100208861487005F07F000870CC
:1010600000BF94F84001012801D10220F0BD012009
:1010700084F8400100BFCE684869B04204D9CB680B
:101080004869C01A486102E04B6900204861887ACB
:1010900040BB2068B0F85070087807EBC000801D96
:1010A000276807F5806707EB40063E2B0DD9C3F391
:1010B0004F1013F01F0F01D1471EB8B24FF4004775
:1010C00047EA8027BFB237600BE0C3F34F0013F04D
:1010D000010F01D0471CB8B24FF6FF7707EA80270F
:1010E000376039E0487840BB2068B0F85070087825
:1010F00007EBC000801D276807F5806707EB4006F7
:101100003E2B0DD9C3F34F1013F01F0F01D1471E13
:10111000B8B24FF4004747EA8027BFB237600BE010
:10112000C3F34F0013F0010F01D0471CB8B24FF6C4
:10113000FF7707EA802737600EE0487801280BD157
:101140002068B0F85060087806EBC000801D266863
:1011500006F5806646F810300F787F00266836F86E
:1011600017604BF68F7706EA070080F4805080F412
:10117000005040F4004646F0800691F800C04FEA67
:101180004C0C276827F81C6000BF002084F8400141
:1011900000BF00BF6AE770B502460B4600BF92F879
:1011A0004001012801D1022070BD012082F84001D8
:1011B00000BF03F08000802808D103F07F00C0EB5F
:1011C000C00402F1280000EB840105E0C3EBC30476
:1011D00002F1B40000EB84010120887003F07F006D
:1011E0000870C3F3C01048700878B0B90D786D006E
:1011F000146834F815404BF6BF7504EA050080F416
:10120000805080F0100040F4004444F080040E78D8
:101210007600156825F816402BE04878A0B10D78C7
:101220006D00146834F8154048F6BF7504EA0500EF
:1012300080F0100040F4004444F080040E78760002
:10124000156825F8164014E00D786D00146834F820
:1012500015404BF68F7504EA050080F4805040F489
:10126000004444F080040E787600156825F8164096
:1012700000BF00BF002082F8400100BF00BF93E71D
:101280002DE9F04705460F4690461E464FF00009EF
:1012900007F07F00C0EBC00105F1280000EB8104DE
:1012A000C4F8108066610020A0610120607007F022
:1012B0007F00207000BF95F84001012802D1022074
:1012C000BDE8F087012085F8400100BFE168606952
:1012D000884204D9E6686069801B606102E0666943
:1012E00000206061A07A90B9B3B2A2882169286811
:1012F00001F0A4FB2868B0F85010207801EBC00082
:10130000801C296801F5806141F8106072E0607806
:1013100040BB2868B0F85020207802EBC000801D48
:101320002A6802F5806202EB40013E2E0DD9C6F319
:101330004F1016F01F0F01D1421E90B24FF4004221
:1013400042EA802292B20A600BE0C6F34F0016F028
:10135000010F01D0421C90B24FF6FF7202EA8022C8
:101360000A600EE0607801280BD12868B0F85010B0
:10137000207801EBC000801D296801F5806141F8EB
:10138000106021784900286830F8110010F0400FF3
:1013900002D0B4F8089001E0B4F80690B3B2216925
:1013A0004A46286801F04AFB607880B921784900F4
:1013B000286830F8110048F68F71084048F2C001E3
:1013C000084322785200296821F8120012E0607860
:1013D00001280FD121784900286830F8110048F61B
:1013E0008F7108404CF2800108432278520029682E
:1013F00021F8120022785200296831F8121048F6BC
:10140000BF7201EA020080F0100080F0200040F47A
:10141000004141F0800123785B002A6822F8131014
:1014200000BF002085F8400100BF00BF48E770B54D
:10143000044600252068B0F8440000F40040B0F5F0
:10144000004F02D1204601F0C7F82068B0F84400F0
:1014500000F48060B0F5806F0BD14FF6FF3021684B
:10146000A1F84400204600F06BF90021204600F06E
:1014700096F92068B0F8440000F48040B0F5804F41
:1014800004D14BF6FF702168A1F844002068B0F841
:10149000440000F40050B0F5005F04D14DF6FF7039
:1014A0002168A1F844002068B0F8440000F480509E
:1014B000B0F5805F14D12068B0F8400020F004003F
:1014C0002168A1F840004FF43D452068A0F8405045
:1014D000204600F041F94EF6FF702168A1F8440063
:1014E0002068B0F8440000F40060B0F5006F1DD132
:1014F0004FF2FF702168A1F844002068B0F8400066
:1015000040F008002168A1F840002068B0F84000D1
:1015100040F004002168A1F840002068B0F84400C1
:10152000C0F3003010B9204600F066F92068B0F82A
:10153000440000F40070B0F5007F07D14FF6FF5073
:101540002168A1F84400204600F022F92068B0F894
:10155000440000F48070B0F5807F04D14FF6FF6046
:101560002168A1F8440070BD70B50446002500262E
:101570000CB9012070BD022084F84101204600F022
:1015800077F8002529E00121C5EBC50204F1280008
:1015900000EB82004170C5EBC50204F1280000F8A1
:1015A00022500021C5EBC50200EB8200C170C5EBE3
:1015B000C50204F1280000EB8200C160C5EBC50242
:1015C00004F1280000EB82000161C5EBC50204F1C3
:1015D000280000EB820041616D1C6068A842D2D8EF
:1015E000002528E00021C5EBC50204F1B40000EBA2
:1015F00082004170C5EBC50204F1B40000F822502E
:10160000C5EBC50200EB8200C170C5EBC50204F159
:10161000B40000EB8200C160C5EBC50204F1B40068
:1016200000EB82000161C5EBC50204F1B40000EBE0
:10163000820041616D1C6068A842D3D801202168F6
:10164000A1F8400000202168A1F840002168A1F81D
:1016500044002168A1F850004FF43D462068A0F8EE
:101660004060002084F8240084F8410100BF81E735
:1016700010B586B004462F48406940F400302D492B
:1016800048610846406940F4002048614FF4C0506A
:1016900001900220029000200390032004900E206D
:1016A000059001A94FF09040FEF790FE2020019098
:1016B0001120029000200390049001A91E48FEF71B
:1016C00085FE1C48C06940F400001A49C8610846FC
:1016D000806940F001008861A069012820D1800460
:1016E0001649086015480838006820F4802013491E
:1016F00008390860081F006840F48020091F08604E
:101700000E481438006840F480200C4914390860F1
:101710004C20FEF77AFF002211464C20FEF783FF93
:1017200000220F214B20FEF77EFF4B20FEF76DFFBE
:1017300006B010BD0010024000080048140401402B
:1017400010B504460121D4F8740101F059FED4F813
:10175000740101F01BFE10BD10B50446A06950B124
:101760000948006838B901F08CF90848006820F091
:10177000060006490860D4F8740101F029FE002033
:101780000149086010BD00000800002010ED00E0D5
:1017900010B50446D4F8740101F021FE10BD0246D4
:1017A00000BF92F84001012801D1022070470120BA
:1017B00082F8400100BF21B980201368A3F84C00D3
:1017C00001E082F8241000BF002082F8400100BF31
:1017D00000BFEBE710B5044604F5A271D4F874011C
:1017E00001F01CFE10BD10B5044601212046AFF3E8
:1017F0000080002010BD000010B50446D4F874012C
:1018000001F055FEA06928B10348006840F00600C9
:101810000149086010BD000010ED00E070B50446FD
:101820000D460026FE48006800F00700A8426ED270
:10183000FB48006820F007002843F9490860084683
:10184000006800F00700A84201D0012070BD207898
:1018500000F00200022807D1F248406820F0F000B2
:10186000A1680843EF494860207810F0010F6ED05E
:10187000606801282CD12020010391FAA1F1B1FA6E
:1018800081F108430121B1EB501F02D1E548006806
:101890000FE02020010391FAA1F1B1FA81F1084390
:1018A0000221B1EB501F02D1DE48006A01E0DD48A1
:1018B000406A20210A0392FAA2F2B2FA82F211439C
:1018C00001F01F0201219140084260D10120BDE7D3
:1018D000606802282DD12020010591FAA1F1B1FA0A
:1018E00081F108430121B1EB501F02D1CD480068BE
:1018F00010E02020010591FAA1F1B1FA81F108432D
:101900000221B1EB501F03D1C648006A02E081E01A
:10191000C448406A20210A0592FAA2F2B2FA82F281
:10192000114301F01F020121914008422FD10120F3
:101930008CE72020022191FAA1F1B1FA81F108434C
:101940000121B1EB501F03D1B648006810E051E10E
:101950002020022191FAA1F1B1FA81F1084302217C
:10196000B1EB501F02D1AF48006A01E0AD48406AB8
:101970002021022292FAA2F2B2FA82F2114301F07D
:101980001F0201219140084201D101205EE7A548D4
:10199000406820F0030061680843A2494860FEF7F0
:1019A000FFFD06466068012810D108E0FEF7F8FD4B
:1019B000801B41F28831884201D9032046E79948CB
:1019C000406800F00C000428F0D113E160680228A0
:1019D00010D108E0FEF7E4FD801B41F28831884217
:1019E00001D9032032E78F48406800F00C00082836
:1019F000F0D1FFE008E0FEF7D3FD801B41F2883113
:101A0000884201D9032021E78648406810F00C0F76
:101A1000F1D1EFE0207800F00200022807D18148E0
:101A2000406820F0F000A16808437E4948602078B3
:101A300010F0010F7BD0606801282CD12020010319
:101A400091FAA1F1B1FA81F108430121B1EB501FE4
:101A500002D1744800680FE02020010391FAA1F13F
:101A6000B1FA81F108430221B1EB501F02D16D4858
:101A7000006A01E06B48406A20210A0392FAA2F250
:101A8000B2FA82F2114301F01F0201219140084293
:101A90005FD10120DAE6606802282CD12020010500
:101AA00091FAA1F1B1FA81F108430121B1EB501F84
:101AB00002D15C4800680FE02020010591FAA1F1F5
:101AC000B1FA81F108430221B1EB501F02D1554810
:101AD000006A01E05348406A20210A0592FAA2F206
:101AE000B2FA82F2114301F01F0201219140084233
:101AF0002FD10120AAE62020022191FAA1F1B1FA0A
:101B000081F108430121B1EB501F02D14548006823
:101B100010E02020022191FAA1F1B1FA81F10843ED
:101B20000221B1EB501F03D13E48006A02E052E0AF
:101B30003C48406A2021022292FAA2F2B2FA82F2D2
:101B4000114301F01F0201219140084201D10120FF
:101B50007CE63448406820F003006168084331495E
:101B60004860FEF71DFD06466068012810D108E0B8
:101B7000FEF716FD801B41F28831884201D903200F
:101B800064E62848406800F00C000428F0D122E008
:101B90006068022810D108E0FEF702FD801B41F2C8
:101BA0008831884201D9032050E61E48406800F081
:101BB0000C000828F0D10EE008E0FEF7F1FC801BD5
:101BC00041F28831884201D903203FE61548406838
:101BD00010F00C0FF1D11248006820F007002843E4
:101BE0000F4908600846006800F00700A84201D0CD
:101BF00001202BE6207800F00400042807D10948D2
:101C0000406820F4E060E1680843064948602078B5
:101C100000F0080008280ED10248406804E00000E7
:101C2000002002400010024020F46050216940EA88
:101C3000C100034948600F20FEF7D4FC002005E6F0
:101C40000010024000B500F019F80949496801F098
:101C5000F001F02292FAA2F2B2FA82F2D140054AE1
:101C6000515CC840044908600846006800BD000097
:101C700000100240E83900084800002070B500213B
:101C800000240022002300201A4D696811F00C0581
:101C90002CD0042D02D0082D27D101E0164827E0D2
:101CA00001F470154FF4701696FAA6F6B6FA86F699
:101CB000F540124E725D0F4DED6A05F00F050F26CF
:101CC00096FAA6F6B6FA86F6F5400D4E745D11F456
:101CD000803F05D0084DB5FBF4F505FB02F302E0AB
:101CE000084D02FB05F3184602E000BF024800BFA2
:101CF00000BF70BD0010024000127A00F8390008E1
:101D0000083A000800093D0070B504460025207817
:101D100010F0010F7ED0FD48406800F00C00042850
:101D20000CD0FA48406800F00C00082836D1F7487B
:101D3000406800F48030B0F5803F2FD120200103AF
:101D400091FAA1F1B1FA81F108430121B1EB501FE1
:101D500002D1EE4800680FE02020010391FAA1F1C2
:101D6000B1FA81F108430221B1EB501F02D1E748DB
:101D7000006A01E0E548406A20210A0392FAA2F2D3
:101D8000B2FA82F2114301F01F0201219140084290
:101D9000C0D060680128BDD0012070BD0020DB49A3
:101DA0008870FEF7FDFB054608E0FEF7F9FB401BD7
:101DB00041F28831884201D90320EEE72020010357
:101DC00091FAA1F1B1FA81F108430121B1EB501F61
:101DD00002D1CE4800680FE02020010391FAA1F162
:101DE000B1FA81F108430221B1EB501F02D1C7487B
:101DF000006A01E0C548406A20210A0392FAA2F273
:101E0000B2FA82F2114301F01F020121914008420F
:101E1000CBD100E07EE02079BC4988700846C06ADA
:101E200020F00F00A1680843B849C8626068012823
:101E300038D1FEF7B5FB054608E0FEF7B1FB401BC5
:101E400041F28831884201D90320A6E7202001030E
:101E500091FAA1F1B1FA81F108430121B1EB501FD0
:101E600002D1AA4800680FE02020010391FAA1F1F5
:101E7000B1FA81F108430221B1EB501F02D1A3480E
:101E8000006A01E0A148406A20210A0392FAA2F206
:101E9000B2FA82F2114301F01F020121914008427F
:101EA000CBD037E0FEF77CFB054608E0FEF778FB79
:101EB000401B41F28831884201D903206DE7202080
:101EC000010391FAA1F1B1FA81F108430121B1EBCB
:101ED000501F02D18D4800680FE02020010391FAC5
:101EE000A1F1B1FA81F108430221B1EB501F02D1F7
:101EF0008648006A01E08548406A20210A0392FA78
:101F0000A2F2B2FA82F2114301F01F0201219140C4
:101F10000842CBD1207800F0020002284DD17B4846
:101F2000406810F00C0F0AD07848406800F00C00B0
:101F3000082843D17548406810F4803F3ED12020E6
:101F4000022191FAA1F1B1FA81F108430121B1EB2B
:101F5000501F02D16D4800680FE02020022191FA45
:101F6000A1F1B1FA81F108430221B1EB501F02D176
:101F70006648006A01E06548406A2021022292FA20
:101F8000A2F2B2FA82F2114301F01F020121914044
:101F9000084204D02069012801D00120FDE65B48F9
:101FA000006820F0F800F82292FAA2F2B2FA82F267
:101FB0006169914008435549086084E02069E8B3AD
:101FC000012053490860FEF7EBFA054606E0FEF7EC
:101FD000E7FA401B642801D90320DEE62020022115
:101FE00091FAA1F1B1FA81F108430121B1EB501F3F
:101FF00002D1464800680FE02020022191FAA1F1A9
:10200000B1FA81F108430221B1EB501F02D13F48E0
:10201000006A01E03D48406A2021022292FAA2F2C1
:10202000B2FA82F2114301F01F02012191400842ED
:10203000CDD03648006820F0F80000E00AE0F82231
:1020400092FAA2F2B2FA82F26169914008432F49F2
:10205000086038E000202E490860FEF7A1FA054626
:1020600006E0FEF79DFA401B642801D9032094E6A0
:102070002020022191FAA1F1B1FA81F10843012156
:10208000B1EB501F02D1214800680FE0202002214F
:1020900091FAA1F1B1FA81F108430221B1EB501F8D
:1020A00002D11A48006A01E01848406A2021022241
:1020B00092FAA2F2B2FA82F2114301F01F02012158
:1020C00091400842CDD1207800F0080008287BD14B
:1020D000A06978B301200F490860FEF761FA054650
:1020E00006E0FEF75DFA401B642801D9032054E6A0
:1020F0006020022191FAA1F1B1FA81F10843012196
:10210000B1EB501F08D10148006816E000100240F2
:1021100000004242800442426020022191FAA1F173
:10212000B1FA81F108430221B1EB501F03D1F74806
:10213000006A02E00FE0F548406A6021022292FA4C
:10214000A2F2B2FA82F2114301F01F020121914082
:102150000842C6D038E00020ED490860FEF720FABA
:10216000054606E0FEF71CFA401B642801D903204F
:1021700013E66020022191FAA1F1B1FA81F108433E
:102180000121B1EB501F02D1E04800680FE0602050
:10219000022191FAA1F1B1FA81F108430221B1EBD8
:1021A000501F02D1D948006A01E0D848406A602136
:1021B000022292FAA2F2B2FA82F2114301F01F0255
:1021C000012191400842CDD1207800F0040004287C
:1021D00071D1CE48C06940F08050CC49C861CD482B
:1021E000006840F48070CB490860FEF7D9F90546D5
:1021F00006E0FEF7D5F9401B642801D90320CCE5A1
:10220000C448006810F4807FF3D0C048006A20F012
:102210000500BE490862FEF7C3F9054608E0FEF76F
:10222000BFF9401B41F28831884201D90320B4E54F
:102230004020022191FAA1F1B1FA81F10843012174
:10224000B1EB501F02D1B14800680FE040200221DD
:1022500091FAA1F1B1FA81F108430221B1EB501FCB
:1022600002D1AA48006A01E0A848406A402102223F
:1022700092FAA2F2B2FA82F2114301F01F02012196
:1022800091400842CBD1A148006A20F00500E168E6
:1022900008439E490862E068012839D1FEF780F9B9
:1022A000054609E0FEF77CF9401B41F2883188427F
:1022B00002D9032071E563E04020022191FAA1F1E7
:1022C000B1FA81F108430121B1EB501F02D18F48CF
:1022D00000680FE04020022191FAA1F1B1FA81F1EA
:1022E00008430221B1EB501F02D18848006A01E087
:1022F0008648406A4021022292FAA2F2B2FA82F2A1
:10230000114301F01F02012191400842CAD037E079
:10231000FEF746F9054608E0FEF742F9401B41F298
:102320008831884201D9032037E54020022191FA03
:10233000A1F1B1FA81F108430121B1EB501F02D1A3
:10234000724800680FE04020022191FAA1F1B1FA31
:1023500081F108430221B1EB501F02D16B48006AA2
:1023600001E06A48406A4021022292FAA2F2B2FADF
:1023700082F2114301F01F02012191400842CBD1AA
:10238000E069002875D06148406800F00C0008281A
:1023900070D0E06902287FD100205F490866FEF70F
:1023A000FFF8054606E0FEF7FBF8401B642801D95C
:1023B0000320F2E42020010591FAA1F1B1FA81F1A4
:1023C00008430121B1EB501F02D1504800680FE0D3
:1023D0002020010591FAA1F1B1FA81F1084302210F
:1023E000B1EB501F02D14948006A01E04748406AFA
:1023F00020210A0592FAA2F2B2FA82F2114301F008
:102400001F02012191400842CDD1D4E908100843B0
:102410003E49496821F4741108433C494860012051
:102420003D490866FEF7BCF8054606E0FEF7B8F839
:10243000401B642801D90320AFE42020010591FA54
:10244000A1F1B1FA81F108430121B1EB501F02D192
:102450002E48006812E02020010591FAA1F1B1FA9E
:1024600081F108430221B1EB501F05D12748006AD2
:1024700004E055E052E00FE02448406A20210A05BC
:1024800092FAA2F2B2FA82F2114301F01F02012184
:1024900091400842CAD043E000201F490866FEF779
:1024A0007FF8054606E0FEF77BF8401B642801D95B
:1024B000032072E42020010591FAA1F1B1FA81F123
:1024C00008430121B1EB501F02D1104800680FE012
:1024D0002020010591FAA1F1B1FA81F1084302210E
:1024E000B1EB501F02D10948006A01E00748406A79
:1024F00020210A0592FAA2F2B2FA82F2114301F007
:102500001F02012191400842CDD109E00010024094
:1025100080044242007000400000424201203CE43E
:1025200000203AE470B504462546681EB0F1807F6D
:1025300001D301200FE0681E4FF0E02148610F2118
:102540004FF0FF3000F034F800204FF0E0218861B8
:1025500007200861002070BD00BFFEE730B50B46C4
:10256000002100BF16E00A24B4EB107F05D9302407
:1025700004EB107403F8114005E0412404EB1074DF
:102580000A3C03F81140000100254C00641C1D5555
:102590004C1CE1B29142E6DB30BD00BFFEE7704764
:1025A00002480068C0F30220704700000CED00E014
:1025B00010B5002807DA0A07140E054A00F00F03C9
:1025C0001B1FD45403E00A07130E024A135410BD14
:1025D00018ED00E000E400E02DE9FC41054600278D
:1025E000002000900DE2BDF8040000F00F06002E60
:1025F0007DD1BDF8040010F0100F31D1286800889B
:1026000048F60F7108402968088005F128042868F9
:10261000B0F85010207801EBC000801C296801F54B
:10262000806131F81000C0F30900A061A169206940
:102630000844206100212846FEF76AF895F8240036
:102640000028CFDD60690028CCD195F8240040F047
:1026500080002968A1F84C00002085F82400D0E112
:1026600005F1B404286800880090BDF8000010F45B
:10267000006F23D02868B0F85010207801EBC0001C
:10268000801D296801F5806131F81000C0F3090050
:10269000A061218B8BB2A28805F5A271286800F099
:1026A000BBF928680088C0F30E0048F68F71084017
:1026B000296808802846FFF78DF8A2E1BDF80000E0
:1026C00010F4004F8ED028680088C0F30E0048F642
:1026D0008F710840296808802868B0F85010207869
:1026E00001EBC000801D296801F5806100E052E027
:1026F00031F81000C0F30900A061A06960B1B4F81E
:1027000018C01FFA8CF3A2882169286800F084F9A8
:10271000A16920690844206100212846FEF708F8D5
:102720002A6802F580622868B0F85000801D02EB2C
:102730004001E2683E2A0FD9E268C2F34F10227BC3
:1027400012F01F0F01D1421E90B24FF4004242EA34
:10275000802292B20A600DE0E268C2F34F00227B51
:1027600012F0010F01D0421C90B24FF6FF7202EA44
:1027700080220A60296809884BF68F7201EA0200FC
:1027800080F4805080F4005040F4004141F080011A
:102790002A68118035E17100286830F81100009036
:1027A000BDF8000010F4004F7DD07100286830F8AB
:1027B0001100C0F30E0048F68F71084072002968BE
:1027C00021F81200C6EBC60105F1B40000EB81044C
:1027D000A07AA8B92868B0F85010207801EBC000A2
:1027E000801D296801F5806131F81000C0F30907E8
:1027F000EFB3A28821693B46286800F00DF944E058
:1028000021784900286830F8110010F4804F15D065
:102810002868B0F85010207801EBC000801C2968AF
:1028200001F5806131F81000C0F30907DFB1E288DB
:1028300021693B46286800F0EFF814E02868B0F8FA
:102840005010207801EBC000801D296801F58061DF
:1028500031F81000C0F309072FB1228921693B46E6
:10286000286800F0D9F821784900286800E00CE0D9
:1028700030F8110048F68F71084048F2C001084353
:1028800022785200296821F81200A0693844A0611A
:10289000206938442061606910B1E068B84206D907
:1028A0002178284600E008E0FDF742FF05E02178A6
:1028B0002846D4E90423FEF7C0FBBDF8000010F061
:1028C000800F7DD0C6EBC60105F1280000EB810426
:1028D0007100286830F8110048F60F710840720046
:1028E000296821F81200A07AD0B92868B0F85010F1
:1028F000207801EBC000801C296801F5806131F867
:102900001000C0F30900A061A069E8B3B4F818C0D2
:102910001FFA8CF3A2882169286800F08FF84EE036
:1029200021784900286830F8110010F0400F1AD0C3
:102930002868B0F85010207801EBC000801C29688E
:1029400001F5806131F81000C0F30900A061A069B1
:1029500028B3B4F818C01FFA8CF3E28821692868FC
:1029600000F06CF81BE02868B0F85010207801EBFC
:10297000C000801D296801F5806131F81000C0F3A6
:102980000900A061A06900E019E040B1B4F818C0E6
:102990001FFA8CF322892169286800F04FF821780A
:1029A0004900286830F8110048F68F7108404CF251
:1029B0008001084322785200296821F8120000E0C3
:1029C0001FE02868B0F85010207801EBC000801C90
:1029D000296801F5806131F81000C0F30900A06199
:1029E000A169206908442061606920B921782846DE
:1029F000FDF78EFE05E021782846D4E90423FEF792
:102A00003FFC2868B0F84400019010F4004F7FF4B8
:102A1000EAAD0020BDE8FC81F0B55F1C7E1000EB44
:102A2000420707F58065344605E035F804CB21F808
:102A300001CB491C641E002CF7D1F0BD2DE9F041FB
:102A400004461D4605F101084FEA680C04EB4208F4
:102A500008F5806366460AE00F78491C91F800800B
:102A600047EA082023F8020B9B1C491C761E002E07
:102A7000F2D1BDE8F0817047704710B5FDF796FDC3
:102A800010BD00B58FB00120059006900020079082
:102A900002200C90C1030D914FF4E0110E9105A896
:102AA000FFF732F9012000900220019002216846D0
:102AB000FEF7B4FE0FB000BD00B58FB0012000904E
:102AC00001900020029002200790C10308914FF46A
:102AD000E01109916846FFF717F908B1FDF74EFCC0
:102AE0000F200A9002200B9000200C904FF4806081
:102AF0000D9000200E9002210AA8FEF78FFE08B16B
:102B0000FDF73CFC0FB000BD1948006840F47000B0
:102B1000174908601748006840F00100154908602F
:102B20000846406814490840124948600846006851
:102B3000124908400F4908600846006820F48020C8
:102B400008600846406820F4FE0048600846C06AF5
:102B500020F00F00C8620846006B0949084005498B
:102B6000086300208860C803014980390860704705
:102B700088ED00E0001002400CC07FF8FFFFF6FE79
:102B8000CCFC00FF70B504460D46D4F8140229466B
:102B9000426820469047002070BD70B504460D463F
:102BA00094F8FC01022802D0032811D100E000BFF4
:102BB000688801280BD10020C4F80402D4F814025C
:102BC0002946826820469047204600F04AF804E0F3
:102BD0002946204600F01BF800BF00BF70BD70B54D
:102BE00006460C4615462B4622460021304600F08C
:102BF000BDFB002070BD70B506460C4615462B4641
:102C000022460021304600F05CFC002070BD70B50B
:102C100004460D468021204600F037FC0021204666
:102C200000F033FC70BD10B504460520C4F8F40173
:102C300000231A461946204600F098FB002010BDDC
:102C400070B504460E4615460220C4F8F401A5618D
:102C5000E5612B4632460021204600F032FC002080
:102C600070BD10B504460420C4F8F40100231A46D0
:102C70001946204600F025FC002010BD70B5044622
:102C80000D46E888012804D029462046FFF7BFFFFB
:102C90001BE094F8FC01022802D003280FD108E0C1
:102CA0000020A060012204F108012046FFF7C8FFC0
:102CB0000AE00122211D2046FFF7C2FF04E0294659
:102CC0002046FFF7A4FF00BF00BF70BDF8B5044663
:102CD0000E467088001208287FD2DFE800F07E04DC
:102CE0000C207E7E5F6D207CD4F810120A68694645
:102CF0009047054676E0207C40B9D4F81402816AFA
:102D00006846884705460221697007E0D4F8140236
:102D1000C16A6846884705460221697062E0B0785A
:102D2000062834D2DFE800F0030B131B232B207C92
:102D3000D4F810124A686946904705462CE0207C7A
:102D4000D4F810128A6869469047054624E0207C32
:102D5000D4F81012CA686946904705461CE0207CEA
:102D6000D4F810120A6969469047054614E0207CA1
:102D7000D4F810124A696946904705460CE0207C59
:102D8000D4F810128A6969469047054604E0314636
:102D90002046FFF73CFFF8BD00BF23E0207C30B9A0
:102DA000D4F81402416B6846884705461AE031465C
:102DB0002046FFF72CFFEEE7207C48B9D4F8140238
:102DC000016B684688470546072169700AE004E000
:102DD00031462046FFF71BFFDDE731462046FFF76F
:102DE00016FFD8E700BFBDF8000088B1F08878B1C1
:102DF000F088BDF80010884202DDBDF8000000E058
:102E0000F0880090BDF8002029462046FFF718FF03
:102E100000BFC0E70146002002E0421CD0B2491CBE
:102E20000A78002AF9D1704770B504460D4694F827
:102E3000FC01022802D0032811D100E000BF0120CC
:102E4000E060D4F8040218B1E06840F00200E060ED
:102E5000022204F10C012046FFF7F2FE04E02946AD
:102E60002046FFF7D4FE00BF00BF70BD2DE9F04142
:102E700004460D4617460026FCB12046FFF7CAFF60
:102E8000022101EB400038803A783046711CCEB206
:102E90002A5403223046711CCEB22A540AE014F898
:102EA000012B3046711CCEB22A5400223046711CD0
:102EB000CEB22A5420780028F1D1BDE8F08100007C
:102EC00070B505460C462246024903A0FFF7CEFF27
:102ED000004870BDE004002048494420436F6E66FE
:102EE0006967000002460020D2F818321873704754
:102EF00070B504460D460421204600F02AF9D4F8A6
:102F0000180230B1D4F8180200F0CBFC0020C4F84D
:102F10001802002070BD00000246122008800148FF
:102F200070470000D239000801462220088001487D
:102F3000704700009800002001460A2008800148E0
:102F400070470000C800002070B504460E460025FA
:102F5000042303228121204600F0F8F9102000F01C
:102F6000A1FCC4F81802D4F8180208B9012503E03E
:102F70000020D4F818120873284670BD70B50546B5
:102F80000C462246024903A0FFF770FF004870BDBF
:102F9000E004002048494420496E7465726661630C
:102FA00065000000024604200880014870470000C8
:102FB000E439000870B505460C462246024903A0D4
:102FC000FFF754FF004870BDE004002053544D69E2
:102FD00063726F656C656374726F6E696373000012
:102FE00070B505460C462246024903A0FFF73EFF96
:102FF000004870BDE0040020484944204A6F7973BE
:103000007469636B20696E204653204D6F646500C0
:1030100070B505460C461A202080FDF7B1F901482D
:1030200070BD0000280000202DE9F04106460C4646
:103030000027B846D6F81852207810F0600026D045
:1030400020285BD16078022812D0032806D00A28F5
:103050000AD00B2812D1A078286016E00122294658
:103060003046FFF7EDFD10E06088001268600CE06C
:103070000122291D3046FFF7E3FD06E021463046D8
:10308000FFF7C5FD0220BDE8F08100BF36E06078A3
:10309000062804D00A2825D00B282DD129E06088E5
:1030A0002221B1EB202F09D1E0884A2801DD4A20F6
:1030B00000E0E0880746DFF84C800DE060882121C1
:1030C000B1EB202F08D1DFF84080E088092801DD2E
:1030D000092000E0E08807463A4641463046FFF7BF
:1030E000AFFD09E0012205F108013046FFF7A8FD18
:1030F00002E0A078A86000BF00BF00BF00BF0020B2
:10310000C1E70000D4000020BC00002070B50446D8
:103110000D4616460CB9022070BDD4F8140210B149
:103120000020C4F814020DB1C4F81052012084F834
:10313000FC012670204600F0BBF80020ECE770B5DB
:1031400004460D462946D4F82002FDF75AFC00201B
:1031500070BD70B504460D462946D4F82002FDF72F
:10316000F7FA002070BD2DE9F04104460E461746DF
:10317000002E48D104F11405D4F8F401022837D107
:10318000D5E9020188420AD9D5E90201401AA860AE
:10319000288982B239462046FFF72DFD28E0E968EC
:1031A0006868B0FBF1F201FB120088B9E968686851
:1031B00088420DD36868D4F8F811884208D20022FA
:1031C00011462046FFF717FD0020C4F8F8010FE074
:1031D000D4F81402C06840B194F8FC01032804D16B
:1031E000D4F81402C168204688472046FFF71BFD2B
:1031F00094F80002012814D1204600F08EF9002036
:1032000084F800020DE0D4F81402406948B194F843
:10321000FC01032805D1D4F8140231464269204646
:1032200090470020BDE8F0812DE9F04105460E46AB
:1032300017465EBB05F58274D5F8F401032833D137
:10324000D4E90201884210D9D4E90201401AA060F1
:10325000D4E90201884201D2A06800E0E06882B2AD
:1032600039462846FFF7BBFC1EE0D5F8140200697A
:1032700040B195F8FC01032804D1D5F81402016986
:10328000284688472846FFF7ECFC0DE0D5F81402E5
:10329000806948B195F8FC01032805D1D5F81402DE
:1032A00031468269284690470020BDE8F081000041
:1032B00010B50446154816490860052048600021ED
:1032C0001348C16002210161816000218161C0F861
:1032D000744104F5087420602068FEF745F918234E
:1032E000002211462068FDF7F1F9582300228021C1
:1032F0002068FDF7EBF92068A4F508744FF480739B
:1033000000228121FDF7E2F9002010BD005C0040A1
:103310006803002010B50246D2F8203201F0800088
:10332000802809D101F07F00C0EBC00403F1280020
:1033300000EB8400807810BD01F07F00C0EBC0047A
:1033400003F1B40000EB84008078F4E72DE9F0414C
:1033500004460F4615461E462B4632463946D4F8DB
:103360002002FDF7DEFB0020BDE8F0812DE9F041F1
:1033700004460D4616461F463B4632462946D4F8BB
:103380002002FDF75AFE0020BDE8F08110B504468A
:103390004023002211462046FFF7D8FF40214FF47A
:1033A000887001514023002280212046FFF7CEFF84
:1033B00040212162012084F8FC01D4F8180228B1D0
:1033C0002179D4F81402426820469047002010BDAD
:1033D000014691F8FD0181F8FC010020704710B50D
:1033E000044694F8FC01032808D1D4F81402C069FB
:1033F00020B1D4F81402C16920468847002010BDCE
:10340000024611740020704770B504460D462946E7
:10341000D4F82002FEF7C3F9002070BD70B5044651
:103420000D46294604F5027000F05BF80120C4F84F
:10343000F40140F20E20005BC4F8F80194F8080291
:1034400010F01F0004D0012808D0022812D10BE090
:1034500004F50271204600F028F913E004F502712A
:10346000204600F0F9F90DE004F50271204600F065
:1034700055F907E094F8080200F08001204600F0BA
:1034800004F800BF00BF002070BD70B504460D46B3
:103490002946D4F82002FDF77EFE002070BD10B54D
:1034A0000446D4F82002FEF79EF9002010BD014624
:1034B00091F8FC0181F8FD01042081F8FC01002055
:1034C00070472DE9F04104460D4616461F463B461F
:1034D00032462946D4F82002FDF7D2FE0020BDE88E
:1034E000F0810A7802704A7842708B78CA7803EBD0
:1034F000022242800B794A7903EB022282808B7987
:10350000CA7903EB0222C28070470246002011B143
:10351000C2F8141200E002207047014600207047F4
:1035200070B504460D46A888F8B9E888E8B9A878C7
:1035300000F07F0694F8FC01032804D129462046B8
:10354000FFF765FB15E084F8FE6131462046FFF782
:103550005BFF2046FFF785FB1EB1022084F8FC01CB
:1035600007E0012084F8FC0103E029462046FFF72C
:103570004EFB70BD70B504460D460226D4F8140209
:1035800038B1D4F81402294602682046904700B9A1
:103590000026304670BD000070B504460D46A87880
:1035A0003449087008460078012804DD2946204681
:1035B000FFF72DFB5BE094F8FC01022802D0032802
:1035C0004FD11CE02B480078A8B12A4800786060F1
:1035D000032084F8FC01274801782046FFF7CAFF42
:1035E000022804D129462046FFF711FB70BD204672
:1035F000FFF737FB02E02046FFF733FB36E01D48BC
:10360000007870B9022084F8FC011A4800786060E4
:10361000184801782046FFF7B5FA2046FFF721FB4E
:103620001EE0144909786068884216D02179204646
:10363000FFF7A8FA0F48007860600E48017820462E
:10364000FFF798FF022804D129462046FFF7DFFA4A
:10365000CCE72046FFF705FB02E02046FFF701FB21
:1036600004E029462046FFF7D2FA00BF00BF00BFA2
:10367000BCE700005C00002070B504460D46688879
:1036800001280AD1C4F80402D4F814022946826839
:10369000204690472046FFF7E4FA70BD10B5044677
:1036A0002046FFF7FCFE002010BD70B505460C4615
:1036B000002660780A2829D2DFE800F01923281EA6
:1036C000280A0528140F21462846FFF7FFFA22E0B2
:1036D00021462846FFF724FF1DE021462846FFF734
:1036E0005BFF18E021462846FFF7C8FA13E02146A1
:1036F0002846FFF799FB0EE021462846FFF7BCFF5E
:1037000009E021462846FFF748FA04E0214628460A
:10371000FFF77DFA00BF00BF304670BD2DE9F041D4
:1037200005460E464FF0000834797078002855D0D1
:1037300001282AD003287AD195F8FC01022802D06A
:1037400003281BD107E02CB1802C03D0214628464A
:10375000FFF79BFE17E0708830B92CB1802C03D0A6
:1037600021462846FFF791FED5F8140231468268BB
:10377000284690472846FFF774FA04E03146284669
:10378000FFF745FA00BF00BF62E095F8FC01022890
:1037900002D003281BD107E02CB1802C03D0214696
:1037A0002846FFF772FE17E0708878B914F07F0F93
:1037B00009D021462846FFF7C2FCD5F8140231464D
:1037C0008268284690472846FFF74BFA04E03146C6
:1037D0002846FFF71CFA00BF00BF39E095F8FC014E
:1037E000022802D003282BD107E014F07F0F03D06A
:1037F00021462846FFF749FE27E004F08000802894
:1038000006D104F07F0105F1140000EB011005E082
:1038100004F07F0105F5827000EB01100746214698
:103820002846FFF777FD18B10120386002E00EE06E
:1038300000203860022239462846FFF701FA04E0EA
:1038400031462846FFF7E3F900BF00BF00E000BFA4
:1038500000BF4046BDE8F08170B504460D46002625
:1038600094F8FC01032814D1287901280CDCD4F841
:1038700014022946826820469047E88840B93EB93C
:103880002046FFF7EEF903E029462046FFF7BFF98F
:1038900004E029462046FFF7BAF900BF00BF002028
:1038A00070BD704701460148704700005803002072
:1038B0004FF4802001490860704700001404014063
:1038C00010B50248FDF7B3FD10BD000068030020ED
:1038D00000BFFEE7074A126812F0807F08D000BFE1
:1038E0004FF060421268002AFAD04FF0604318701F
:1038F00070470000FCED00E0FEF7C0F929A0FCF7DE
:10390000B3FCFCF75BFEFFF7D7F82948406940F4A9
:1039100080202749486101202649486000208860AE
:103920000320C860012008602348FCF74FFD0022F7
:1039300022492348FFF7EAFB22492148FFF7E5FD2A
:103940001F48FFF7ABFE2CE02AE001211A48FCF7E4
:1039500023FE6420FCF72EFD01211748FCF71CFE16
:103960006420FCF727FD01211348FCF715FE6420B5
:10397000FCF720FD01211048FCF70EFE6420FCF747
:1039800019FD01210C48FCF707FE6420FCF712FD2D
:1039900001210948FCF700FE4FF4FA60FCF70AFD2C
:1039A000D3E7D1E748414C5F496E69740D0A0000C6
:1039B0000010024020010020000400480C000020FC
:1039C00034010020600000204FF04070E1EE100A4A
:1039D00070471201000200000040830410570002EB
:1039E00001020301040309040000000001020304B2
:1039F0000102030406070809020304050607080973
:103A00000A0B0C0D0E0F1010010203040506070827
:103A1000090A0B0C0D0E0F10383A000800000020A8
:103A200020010000C4010008583B000820010020CC
:103A3000200B0000E0010008000000000000000072
:103A400000000000192F0008A52F0008B52F00085E
:103A5000E12F000811300008C12E00087D2F00085A
:103A60001A03000000000000000000000000000039
:103A70000000000000000000000000000000000046
:103A800000127A00000000000000000001020304A0
:103A90000607080900000000492F0008F12E000861
:103AA000293000080000000000000000E52E00089A
:103AB0000000000000000000000000000000000006
:103AC000292F0008292F0008292F0008392F000866
:103AD00009022200010100E0320904000001030193
:103AE0000200092111010001224A00070581030497
:103AF000000A0000092111010001224A0000000013
:103B00000A06000200000040010000000501090251
:103B1000A1010901A10005091901290315002501C9
:103B20009503750181029501750581010501093033
:103B3000093109381581257F750895038106C0096B
:103B40003C05FF09011500250175019502B122759B
:083B5000069501B101C000005F
:040000050800018965
:00000001FF
